:100000000C9434000C9451000C9451000C94510049
:100010000C9451000C9451000C9451000C9451001C
:100020000C9451000C9451000C9451000C9451000C
:100030000C9451000C9451000C9451000C945100FC
:100040000C9451000C9451000C9451000C945100EC
:100050000C9451000C9451000C9451000C945100DC
:100060000C9451000C94510011241FBECFEFD8E026
:10007000DEBFCDBF11E0A0E0B1E0E0E1FCE002C0F6
:1000800005900D92A231B107D9F721E0A2E1B1E0CC
:1000900001C01D92A432B207E1F70E94FC010C944A
:1000A00006060C9400009091BB009E7F9093BB00CD
:1000B00094E89093BC009091BC0097FFFCCF909186
:1000C000BB009F709093BB0094E89093BC0090910C
:1000D000BC0097FFFCCF2091BB00982F907F922B04
:1000E0009093BB0094E89093BC009091BC0097FF64
:1000F000FCCF9091BB0092609093BB0094E89093EA
:10010000BC009091BC0097FFFCCF9091BB009D7FFD
:100110009093BB0094E89093BC009091BC0097FF33
:10012000FCCF9091BB009F709093BB0094E890939C
:10013000BC009091BC0097FFFCCF2091BB0030E148
:100140008302C0011124822B8093BB0084E880933A
:10015000BC008091BC0087FFFCCF8091BB00826017
:100160008093BB0084E88093BC008091BC0087FF33
:10017000FCCF8091BB008D7F8093BB0084E880938F
:10018000BC008091BC0087FFFCCF08959091BB001C
:1001900091609093BB0094E89093BC009091BC0058
:1001A00097FFFCCF9091BB009F709093BB0094E8A9
:1001B0009093BC009091BC0097FFFCCF2091BB00B6
:1001C000982F907F922B9093BB0094E89093BC0063
:1001D0009091BC0097FFFCCF9091BB0092609093F0
:1001E000BB0094E89093BC009091BC0097FFFCCFBB
:1001F0009091BB009D7F9093BB0094E89093BC00CE
:100200009091BC0097FFFCCF9091BB009F709093A2
:10021000BB0094E89093BC009091BC0097FFFCCF8A
:100220002091BB0030E18302C0011124822B809316
:10023000BB0084E88093BC008091BC0087FFFCCFAA
:100240008091BB0082608093BB0084E88093BC00F7
:100250008091BC0087FFFCCF8091BB008D7F809395
:10026000BB0084E88093BC008091BC0087FFFCCF7A
:1002700008958091BB008E7F8093BB0084E88093BB
:10028000BC008091BC0087FFFCCF8091BB008F70C9
:100290008093BB0084E88093BC008091BC0087FF02
:1002A000FCCF8091BB0080638093BB0084E8809387
:1002B000BC008091BC0087FFFCCF8091BB008260B6
:1002C0008093BB0084E88093BC008091BC0087FFD2
:1002D000FCCF8091BB008D7F8093BB0084E880932E
:1002E000BC008091BC0087FFFCCF8091BB008E7F5B
:1002F0008093BB0084E88093BC008091BC0087FFA2
:10030000FCCF8091BB008F708093BB0084E880930A
:10031000BC008091BC0087FFFCCF8091BB00806354
:100320008093BB0084E88093BC008091BC0087FF71
:10033000FCCF8091BB0082608093BB0084E88093F7
:10034000BC008091BC0087FFFCCF8091BB008D7FFB
:100350008093BB0084E88093BC008091BC0087FF41
:10036000FCCF8091BB008E7F8093BB0084E880939C
:10037000BC008091BC0087FFFCCF8091BB008F70D8
:100380008093BB0084E88093BC008091BC0087FF11
:10039000FCCF8091BB0080628093BB0084E8809397
:1003A000BC008091BC0087FFFCCF8091BB008260C5
:1003B0008093BB0084E88093BC008091BC0087FFE1
:1003C000FCCF8091BB008D7F8093BB0084E880933D
:1003D000BC008091BC0087FFFCCF88E20E945300E4
:1003E0008CE00E94530081E00E94530086E00E944E
:1003F000530080E80C94530082E68093B80084E0B8
:100400008093BC001092B90084EA8093BC00809174
:10041000BC0087FFFCCF80E78093BB0084E880931B
:10042000BC008091BC0087FFFCCF0E94390180E8AE
:100430000E945300C1E0D1E08EE40E94C600899181
:100440008111FBCF80911401C5E1D1E0882329F00F
:100450000E94C60089918111FBCF24E8F22E06E0AC
:1004600011E0C4E1D1E062E171E083E191E00E943A
:10047000C3028091BB008E7F8093BB00F092BC00D2
:100480008091BC0087FFFCCF8091BB008F70809370
:10049000BB00F092BC008091BC0087FFFCCF809134
:1004A000BB00806C8093BB00F092BC008091BC00CC
:1004B00087FFFCCF8091BB0082608093BB00F092ED
:1004C000BC008091BC0087FFFCCF8091BB008D7F7A
:1004D0008093BB00F092BC008091BC0087FFFCCFF2
:1004E0008091BB008F708093BB00F092BC00809124
:1004F000BC0087FFFCCF8091BB008093BB00F092D3
:10050000BC008091BC0087FFFCCF8091BB00826063
:100510008093BB00F092BC008091BC0087FFFCCFB1
:100520008091BB008D7F8093BB00F092BC008091D6
:10053000BC0087FFFCCF809113011F928F938091A5
:1005400012011F928F931F930F93DF93CF930E94FB
:100550002E0380911401EDB7FEB738960FB6F894CC
:10056000FEBF0FBEEDBF882309F47DCF95E1C92EF4
:1005700091E0D92E0E94C600F60181916F01882377
:1005800009F471CFF7CFEF92FF920F931F93CF93A0
:10059000DF9300D000D01F92CDB7DEB77C01529A16
:1005A00087E893E10197F1F700C0000052989DE0C1
:1005B0009A95F1F700004A994BC0EAE1EA95F1F704
:1005C00000C04A9B49C04A99FECFFE0131968E0178
:1005D0000A5F1F4FA1E0B0E027E030E090E04A9BC7
:1005E000FECF8DE08A95F1F700004A9927C021508F
:1005F0003109A8F79193E017F10771F749819B81C1
:100600002A81240F3327331F290F311D8C81280F96
:10061000311D8D8182171306E9F4F7014083FB0138
:10062000908380E00F900F900F900F900F90DF91CC
:10063000CF911F910F91FF90EF900895AD01022E81
:1006400001C0440F0A94EAF7942B4A99FECFCFCF0A
:1006500081E0E8CF83E0E6CF82E0E4CFAEE0B0E037
:10066000E4E3F3E00C94DD050D891E8986E08C83BC
:100670001A8309838FEF9FE79E838D83AE01475EC8
:100680005F4F6F89788DCE0101960E9451032F81B3
:100690003885020F131FF80110822E96E4E00C94A7
:1006A000F905ABE0B0E0E7E5F3E00C94CF057C01A1
:1006B0003B018A01FC0117821682838181FFC8C138
:1006C000CE0101965C01F7019381F30193FD8591C1
:1006D00093FF81913F01882309F453C1853239F496
:1006E00093FD859193FF81913F01853229F4B701F4
:1006F00090E00E944105E7CF912C212C312CFFE1A5
:10070000F31538F08B3211F190F4803209F1833215
:1007100029F137FC3CC020ED280F2A3050F536FE79
:1007200020C08AE0989E200D1124922E06C08D32A2
:1007300091F0803371F7689430F8F30193FD85915F
:1007400093FF81913F018111DACF21C0689431F884
:10075000689432F8F2CF689433F8EFCF689434F8A5
:10076000ECCFEAE02E9E200D1124222E689435F85D
:10077000E4CF8E3229F436FC04C1689436F8DDCF1C
:100780008C3619F4689437F8D8CF8836B1F2982FA0
:100790009F7D95549330E0F08336A1F18337C1F10A
:1007A000833509F063C02801F2E04F0E511CF801B7
:1007B000C080D180692D70E036FC02C06FEF7FEF02
:1007C000C6010E942B054C01689437F882010AC0CB
:1007D0000C5F1F4FFFE3F98388248394912C6501FC
:1007E000E89437F833FE2DC0522C8114910471F532
:1007F000552009F468CFB70180E290E00E944105DE
:100800005A94F6CFF801808189830E5F1F4FE4CFA1
:100810002801F2E04F0E511CF801C080D180692DF3
:1008200070E036FC02C06FEF7FEFC6010E94360514
:100830004C018201D5CFB70180E290E00E944105D2
:100840002A942814190409F0B0F7CECFF60137FC2A
:10085000859137FE81916F01B70190E00E944105BB
:1008600051105A94F1E08F1A9108BFCF843619F0D5
:10087000893609F077C0F80137FE6BC0608171815D
:10088000828193810C5F1F4FF32DFF763F2E97FFE0
:1008900009C090958095709561957F4F8F4F9F4FC0
:1008A000689437F82AE030E0A5010E947105C82E4F
:1008B000CA188C2C432C36FE0CC0E89440F8C9149E
:1008C00040F434FE05C032FC03C0F32DFE7E4F2EF3
:1008D000892C44FE95C0FE01EC0DF11D8081803312
:1008E00009F087C0242D297E422E842D8870582E31
:1008F00043FC95C040FE8FC09C2C821418F42C0C35
:10090000922C981844FE91C0B70180E390E00E94B9
:10091000410542FE09C088E790E041FE02C088E53B
:1009200090E0B7010E944105C91408F48AC0CA9436
:10093000D12C9FEFC91AD90ACA0CDB1CF60182918F
:100940006F01B70190E00E944105AC14BD04B1F7FE
:100950004FCF60817181072E000C880B990B0E5FC1
:100960001F4F92CFD32CE894D4F82AE030E085379B
:1009700039F1232D297FD22E8F3601F148F48835A5
:10098000A9F0F701868197812B96E2E10C94EB05A3
:10099000803749F08837A9F7D4FE02C06894D2F8AE
:1009A00020E130E00DC06894D4F8F6CF34FE03C0E7
:1009B000822F8660D82E20E132E002C028E030E0AD
:1009C000F801D7FE0FC060817181828193810C5F35
:1009D0001F4FA5010E947105C82ECA183D2CE8942E
:1009E00037F867CF6081718190E080E00E5F1F4F24
:1009F000F0CF42FC02C0839478CF8394839475CF68
:100A0000842D867809F471CFF6CFB70180E290E0AB
:100A10000E94410583948214C0F3512C73CF522C51
:100A20005818821408F46ECFF8CF842D867809F414
:100A30007BCF8BE241FE80E247FC8DE2B70190E084
:100A400071CFB70180E390E00E9441059A946CCF8A
:100A50008FEF9FEF99CFFC0105906150704001101E
:100A6000D8F7809590958E0F9F1F0895FC016150D7
:100A7000704001900110D8F7809590958E0F9F1FC0
:100A800008950F931F93CF93DF93182F092FEB0136
:100A90008B8181FD09C01FEF0FEF812F902FDF9118
:100AA000CF911F910F91089582FF14C02E813F8135
:100AB0008C819D81281739073CF4E881F981CF01A9
:100AC00001969983888310838E819F8101969F83ED
:100AD0008E83E3CFE885F985812F0995892BA1F3D2
:100AE000DACFFA01AA27283051F1203181F1E894B8
:100AF0006F936E7F6E5F7F4F8F4F9F4FAF4FB1E011
:100B00003ED0B4E03CD0670F781F891F9A1FA11D0B
:100B1000680F791F8A1F911DA11D6A0F711D811D0C
:100B2000911DA11D20D009F468943F912AE0269FD1
:100B300011243019305D3193DEF6CF010895462F30
:100B40004770405D4193B3E00FD0C9F7F6CF462F11
:100B50004F70405D4A3318F0495D31FD405241937A
:100B600002D0A9F7EACFB4E0A69597958795779537
:100B70006795BA95C9F700976105710508959B01BE
:100B8000AC010A2E06945795479537952795BA9547
:100B9000C9F7620F731F841F951FA01D08952F9220
:100BA0003F924F925F926F927F928F929F92AF92FD
:100BB000BF92CF92DF92EF92FF920F931F93CF934A
:100BC000DF93CDB7DEB7CA1BDB0B0FB6F894DEBFE1
:100BD0000FBECDBF09942A88398848885F846E8407
:100BE0007D848C849B84AA84B984C884DF80EE8051
:100BF000FD800C811B81AA81B981CE0FD11D0FB65A
:100C0000F894DEBF0FBECDBFED010895F894FFCF7D
:100C10004E656B65740025644320256452483B0D86
:020C20000A00C8
:00000001FF
