:100000000C9435000C945D000C945D000C945D0024
:100010000C945D000C945D000C945D000C945D00EC
:100020000C945D000C945D000C945D000C945D00DC
:100030000C945D000C945D000C945D000C945D00CC
:100040000C94B2000C945D000C945D000C945D0067
:100050000C945D000C945D000C945D000C945D00AC
:100060000C945D000C945D00DE0111241FBECFEFE7
:10007000D8E0DEBFCDBF11E0A0E0B1E0EEE2F4E0F9
:1000800002C005900D92AA30B107D9F721E0AAE08D
:10009000B1E001C01D92AB31B207E1F710E0C5E35A
:1000A000D0E004C02197FE010E940F02C433D107A3
:1000B000C9F70E94CA010C9415020C94000088B183
:1000C0008F6788B930E020E061E070E048B1CB0193
:1000D000022E01C0880F0A94EAF78095842388B91C
:1000E000213081F1223081F02223F1F086B186B1F6
:1000F00086B186B188B18F6788B92F5F3F4F2330B3
:10010000310521F780E00895339902C083E3089513
:10011000349B04C0359904C089E3089586E30895AB
:100120003699E8CF83E20895339902C081E30895B8
:10013000349902C084E30895359902C087E3089595
:1001400086B1D8CF339902C082E30895349902C0B2
:1001500085E30895359902C088E308953699CACF9A
:1001600080E308951F920F920FB60F9211242F93E0
:100170003F934F935F936F937F938F939F93AF932F
:10018000BF93EF93FF930E945F0080931A0188232F
:10019000C1F09091160191115AC0082E000C990BD4
:1001A000C097909315018093140181E0809316010C
:1001B0002FEF82E597E0215080409040E1F700C0AA
:1001C00000008FEF8BB92091170181E090E001C012
:1001D000880F2A95EAF785B995B18091180187951E
:1001E00088278795892B85B980911701813009F47B
:1001F00058C008F451C0823009F446C0833009F079
:1002000048C080910B0190910C016AE070E00E945F
:10021000E701FC01E050FF4F808180958BB9809110
:1002200017018330B0F58F5F80931701FF91EF9135
:10023000BF91AF919F918F917F916F915F914F91FE
:100240003F912F910F900FBE0F901F901895909196
:100250001301992359F19091100191113CC0082E7E
:10026000000C990BC09790930F0180930E0181E0D1
:10027000809310012FEF82E597E02150804090405D
:10028000E1F700C000009DCF80910E0190910F0119
:10029000BCCF10921701CACF809114019091150123
:1002A000B4CF8091110190911201AFCF082E000CB4
:1002B000990BC097909312018093110181E0809374
:1002C00013012FEF82E597E0215080409040E1F745
:1002D00000C0000076CF90910D01992359F183322F
:1002E00009F06FCF80911401909115010197B9F138
:1002F0001092150110921401109212011092110126
:1003000010920F0110920E0110920C0110920B012D
:1003100010921601109213011092100110920D010B
:100320002FEF82E597E0215080409040E1F700C038
:10033000000047CF082E000C990BC09790930C013A
:1003400080930B0181E080930D012FEF82E597E010
:10035000215080409040E1F700C0000032CF8091F2
:10036000110190911201059719F680910E0190915B
:100370000F01049709F0BCCF80910B0190910C0103
:10038000069709F0B5CF81E090E090931901809332
:100390001801AECF87E087B98FE788B98FEF84B9AE
:1003A00090E895B98AB91BB814BC83E085BD81E09B
:1003B00080936E00789410920A01FFCF109216017C
:1003C000109213011092100110920D01089597FBE5
:1003D000072E16F4009407D077FD09D00E94FB0188
:1003E00007FC05D03EF4909581959F4F0895709538
:1003F00061957F4F0895AA1BBB1B51E107C0AA1F3F
:10040000BB1FA617B70710F0A61BB70B881F991FB5
:100410005A95A9F780959095BC01CD010895EE0FEE
:0E042000FF1F0590F491E02D0994F894FFCF92
:0A042E003F065B4F666D7D077F6F90
:00000001FF
