:100000000C9434000C9451000C9451000C94510049
:100010000C9451000C9451000C9451000C9451001C
:100020000C9451000C9451000C9451000C9451000C
:100030000C9451000C9451000C9451000C945100FC
:100040000C94A9000C9451000C9451000C94510094
:100050000C9451000C9451000C9451000C945100DC
:100060000C9451000C94510011241FBECFEFD8E026
:10007000DEBFCDBF11E0A0E0B1E0EEE9F3E002C0E9
:1000800005900D92AA30B107D9F721E0AAE0B1E0BE
:1000900001C01D92AE30B207E1F70E9485010C94B9
:1000A000CD010C94000088B18F6788B930E020E062
:1000B00061E070E048B1CB01022E01C0880F0A94C4
:1000C000EAF78095842388B9213099F1223081F0B4
:1000D0002223D1F086B186B186B186B188B18F670F
:1000E00088B92F5F3F4F2330310521F780E0089515
:1000F000339902C083E30895349B04C0359908C046
:1001000089E3089586E30895339909C081E308954A
:100110003699E4CF88B18F6788B980E00895349923
:1001200002C084E30895359902C087E3089586B13B
:10013000D5CF339902C082E30895349902C085E394
:100140000895359902C088E308953699C7CF80E3B2
:1001500008951F920F920FB60F9211242F933F9381
:100160004F935F936F937F938F939F93AF93BF93BF
:10017000EF93FF930E94530080930D01882331F089
:100180008053990B90930B0180930A018FEF8BB9E9
:1001900020910C0181E090E001C0880F2A95EAF7D8
:1001A00085B980910C01813009F488C008F45FC0E2
:1001B0008230E1F1833009F057C040910A0150913B
:1001C0000B019A01ADECBCEC0E94AA019C01369592
:1001D00027953695279536952795C901880F991F3C
:1001E000880F991F820F931F880F991F481B590B67
:1001F000FA01E050FF4F808180958BB980910C010E
:10020000833090F58F5F80930C01FF91EF91BF9148
:10021000AF919F918F917F916F915F914F913F919E
:100220002F910F900FBE0F901F90189540910A01CB
:1002300050910B019A013695279536952795ABE796
:10024000B4E10E94AA019695879564E6689F9001A3
:10025000699F300D1124CA01821B930B6AE070E084
:100260000E949601FB01C5CF10920C01CECF4091A8
:100270000A0150910B019A01329522952F70232784
:100280003F702327A7E4B3E00E94AA0196958795C3
:10029000969587959695879560E177E2869F900180
:1002A000879F300D969F300D1124CA01821B930B3E
:1002B00068EE73E00E949601FB019BCF40910A011A
:1002C00050910B019A0136952795369527953695CD
:1002D0002795A5ECB0E20E94AA01929582958F70B5
:1002E00089279F70892768EE73E0869F9001879F1A
:1002F000300D969F300D1124CA01821B930B64E6CA
:1003000070E00E949601FB0174CF8FEF84B915B89D
:100310008AB91BB887E087B98FE788B914BC83E036
:1003200085BD81E080936E007894FFCF97FB072E08
:1003300016F4009407D077FD09D00E94B90107FC9C
:1003400005D03EF4909581959F4F089570956195E5
:100350007F4F0895A29FB001B39FC001A39F700D6E
:10036000811D1124911DB29F700D811D1124911DBD
:100370000895AA1BBB1B51E107C0AA1FBB1FA617EC
:10038000B70710F0A61BB70B881F991F5A95A9F73E
:0E03900080959095BC01CD010895F894FFCFA3
:0A039E003F065B4F666D7D077F6F21
:00000001FF
