:100000000C9435000C945D000C945D000C945D0024
:100010000C945D000C945D000C945D000C945D00EC
:100020000C945D000C945D000C945D000C94170121
:100030000C945D000C945D000C945D000C945D00CC
:100040000C945F000C945D000C945D000C945D00BA
:100050000C945D000C945D000C945D000C945D00AC
:100060000C945D000C945D009A0111241FBECFEF2B
:10007000D8E0DEBFCDBF11E0A0E0B1E0E6E5F3E0FF
:1000800002C005900D92A031B107D9F721E0A0E19F
:10009000B1E001C01D92A432B207E1F710E0C5E360
:1000A000D0E004C02197FE010E94A301C433D10710
:1000B000C9F70E944A010C94A9010C9400001F92F8
:1000C0000F920FB60F9211242F933F934F938F935C
:1000D0009F93AF93BF93EF93FF9380911D019091F6
:1000E0001E01A0911F01B09120012FEF2BB940916B
:1000F0001C0121E030E001C0220F4A95EAF725B942
:1001000035B120912201279522272795232B25B948
:1001100020911C01213009F446C0B8F1223019F1B8
:10012000233081F58F709927AA27B078B7FD74C066
:1001300080509F4FFC01808180958BB980911C017C
:10014000833000F58F5F80931C01FF91EF91BF9189
:10015000AF919F918F914F913F912F910F900FBE33
:100160000F901F9018959927AA27B078B7FD4AC01D
:10017000B7FD44C024E0B595A795979587952A9536
:10018000D1F7D6CF10921C01E0CFAA27B078B7FDE7
:100190002CC0B7FD25C04CE0B595A79597958795E0
:1001A0004A95D1F7C5CF9F70AA27B078B7FD0EC08A
:1001B000B7FD07C0892F9A2FAB2FBB27A7FDBA9594
:1001C000B7CF81509F4FAF4FBF4FF4CF0197A109D9
:1001D000B109906FAF6FBF6F0196A11DB11DE8CF40
:1001E0008150904FAF4FBF4FD6CF0197A109B109B2
:1001F000AF6FBF6F0196A11DB11DCBCF0F96A11D93
:10020000B11DB8CF0197A109B1099F6FAF6FBF6F43
:100210000196A11DB11DACCF0197A109B109806F55
:100220009F6FAF6FBF6F0196A11DB11D81CF1F9250
:100230000F920FB60F9211242F938F939F93AF932A
:10024000BF93809121018823C1F080911D0190917D
:100250001E01A0911F01B09120010196A11DB11DA9
:1002600080931D0190931E01A0931F01B093200164
:100270008F3F9F4FA105B10551F0BF91AF919F9165
:100280008F912F910F900FBE0F901F901895109285
:100290002101F3CF8FEF84B990E895B98AB91BB8E3
:1002A00014BC83E085BD81E080936E00F8941092C9
:1002B00080001092810085E39CE0909389008093F8
:1002C0008800809181008860809381008091810006
:1002D00084608093810080916F00826080936F00C2
:1002E000789490E021E03199FECF8091210182271E
:1002F00080932101811113C0992389F03FEF81E19F
:100300009AE7315080409040E1F700C00000109221
:100310001D0110921E0110921F01109220013FEF4B
:1003200082E597E0315080409040E1F700C0000046
:1003300091E0D9CF10921B01109218011092150173
:10034000109212010895EE0FFF1F0590F491E02D19
:060350000994F894FFCFB0
:100356003F065B4F666D7D077F6FF7FC395E7671F2
:00000001FF
