:100000000C9434000C943E000C943E000C943E0082
:100010000C943E000C943E000C943E000C943E0068
:100020000C943E000C943E000C943E000C943E0058
:100030000C943E000C943E000C943E000C943E0048
:100040000C943E000C943E000C943E000C943E0038
:100050000C943E000C943E000C943E000C943E0028
:100060000C943E000C943E0011241FBECFEFD8E04C
:10007000DEBFCDBF0E9440000C9454000C940000E1
:1000800082E088B987B915B880E284B93199FECF8A
:100090002D9A2FEF85EA9EE0215080409040E1F7B5
:0C00A00000C000002D98F2CFF894FFCFB4
:00000001FF
