:100000000C9435000C945D000C945D000C945D0024
:100010000C945D000C945D000C945D000C945D00EC
:100020000C945D000C945D000C945D000C945D00DC
:100030000C945D000C945D000C945D000C945D00CC
:100040000C94B2000C945D000C945D000C945D0067
:100050000C945D000C945D000C945D000C945D00AC
:100060000C945D000C945D00AA0111241FBECFEF1B
:10007000D8E0DEBFCDBF11E0A0E0B1E0E6ECF3E0F8
:1000800002C005900D92AA30B107D9F721E0AAE08D
:10009000B1E001C01D92A831B207E1F710E0C5E35D
:1000A000D0E004C02197FE010E94DB01C433D107D8
:1000B000C9F70E9499010C94E1010C94000088B1E9
:1000C0008F6788B930E020E061E070E048B1CB0193
:1000D000022E01C0880F0A94EAF78095842388B91C
:1000E000213081F1223081F02223F1F086B186B1F6
:1000F00086B186B188B18F6788B92F5F3F4F2330B3
:10010000310521F780E00895339902C083E3089513
:10011000349B04C0359904C089E3089586E30895AB
:100120003699E8CF83E20895339902C081E30895B8
:10013000349902C084E30895359902C087E3089595
:1001400086B1D8CF339902C082E30895349902C0B2
:1001500085E30895359902C088E308953699CACF9A
:1001600080E308951F920F920FB60F9211242F93E0
:100170003F934F935F936F937F938F939F93AF932F
:10018000BF93EF93FF930E945F0080931701882332
:10019000B1F090911501911150C08053990B90933B
:1001A00014018093130181E0809315012FEF82E504
:1001B00097E0215080409040E1F700C000008FEFB1
:1001C0008BB92091160181E090E001C0880F2A953B
:1001D000EAF785B980911601813009F456C008F418
:1001E0004FC0823009F444C0833009F046C080918A
:1001F0000A0190910B016AE070E00E94B301FC01DA
:10020000E050FF4F808180958BB98091160183303B
:10021000A0F58F5F80931601FF91EF91BF91AF9191
:100220009F918F917F916F915F914F913F912F910E
:100230000F900FBE0F901F90189590911201992367
:1002400049F190910F01911138C08053990B90930F
:100250000E0180930D0181E080930F012FEF82E565
:1002600097E0215080409040E1F700C00000A7CF08
:1002700080910D0190910E01BECF10921601CCCF4E
:100280008091130190911401B6CF8091100190914B
:100290001101B1CF8053990B9093110180931001FC
:1002A00081E0809312012FEF82E597E0215080409A
:1002B0009040E1F700C0000082CF90910C0199239B
:1002C00029F1833209F07BCF1092140110921301AF
:1002D000109211011092100110920E0110920D0156
:1002E00010920B0110920A01109215011092120146
:1002F00010920F0110920C012FEF82E597E0215030
:1003000080409040E1F700C0000059CF8053990B26
:1003100090930B0180930A0181E080930C012FEFF1
:1003200082E597E0215080409040E1F700C0000056
:1003300046CF8FEF84B915B88AB91BB887E087B963
:100340008FE788B914BC83E085BD81E080936E009F
:100350007894FFCF109215011092120110920F01A4
:1003600010920C01089597FB072E16F4009407D005
:1003700077FD09D00E94C70107FC05D03EF4909597
:1003800081959F4F0895709561957F4F0895AA1BA1
:10039000BB1B51E107C0AA1FBB1FA617B70710F070
:1003A000A61BB70B881F991F5A95A9F780959095A2
:1003B000BC01CD010895EE0FFF1F0590F491E02DD3
:0603C0000994F894FFCF40
:0A03C6003F065B4F666D7D077F6FF9
:00000001FF
