:100000000C9435000C945D000C945D000C945D0024
:100010000C945D000C945D000C945D000C945D00EC
:100020000C945D000C945D000C945D000C945F00DA
:100030000C945D000C945D000C945D000C945D00CC
:100040000C945D000C945D000C945D000C945D00BC
:100050000C945D000C945D000C945D000C945D00AC
:100060000C945D000C945D00440111241FBECFEF81
:10007000D8E0DEBFCDBF11E0A0E0B1E0EAEFF2E0F2
:1000800002C005900D92A031B107D9F721E0A0E19F
:10009000B1E001C01D92A232B207E1F710E0C5E362
:1000A000D0E004C02197FE010E947501C433D1073E
:1000B000C9F70E94FE000C947B010C9400001F9273
:1000C0000F920FB60F9211242F933F934F935F938C
:1000D0006F937F938F939F93AF93BF93EF93FF9310
:1000E00020911D0130911E0180911F01882331F064
:1000F0002F5F3F4F30931E0120931D018FEF8BB96F
:1001000040911C0181E090E001C0880F4A95EAF718
:1001100085B985B190912001979599279795982B4E
:1001200095B980911C01813009F457C008F443C08F
:10013000823099F0833071F42F70307837FD57C0DA
:1001400020503F4FF901808180958BB980911C012F
:100150008330E8F010921C011DC0C90166EA70E00E
:100160000E944D0197FD41C095958795959587957E
:100170009595879595958795FC01E050FF4F808177
:1001800080958BB98BB980911C01833018F78F5FF4
:1001900080931C01FF91EF91BF91AF919F918F913F
:1001A0007F916F915F914F913F912F910F900FBE73
:1001B0000F901F901895C9016AE171E40E944D01EA
:1001C00062E876E00E944D01FB01E050FF4F808124
:1001D00080958BB980911C01D8CFC90162E876E087
:1001E0000E944D0166EA70E0EDCF0F96BDCF215021
:1001F0003109206F3F6F2F5F3F4FA2CF8FEF84B940
:1002000090E895B98AB91BB8F894109280001092C2
:10021000810080E49FE19093890080938800809121
:10022000810088608093810080918100826080934A
:10023000810080916F00826080936F00789490E0DD
:1002400021E03199FECF80911F01822780931F0109
:1002500081110FC0992369F03FEF81E19AE7315096
:1002600080409040E1F700C0000010921E01109203
:100270001D013FEF82E597E0315080409040E1F76B
:1002800000C0000091E0DDCF10921B011092180118
:100290001092150110921201089597FB072E16F483
:1002A000009407D077FD09D00E94610107FC05D0BA
:1002B0003EF4909581959F4F0895709561957F4F7D
:1002C0000895AA1BBB1B51E107C0AA1FBB1FA6179D
:1002D000B70710F0A61BB70B881F991F5A95A9F7EF
:1002E00080959095BC01CD010895EE0FFF1F0590FC
:0A02F000F491E02D0994F894FFCF7B
:1002FA003F065B4F666D7D077F6FF7FC395E76714F
:00000001FF
